:020000040800F2
:10000000101A00204D010008AD1000081B10000858
:1000100000000000000000000000000000000000E0
:10002000000000000000000000000000F5100008C3
:1000300000000000000000000B0100089D110008F6
:100040005F0100085F0100085F0100085F01000810
:100050005F0100085F0100085F0100085F01000800
:10006000000000005F0100085F0100085F01000858
:100070005F0100085F01000800000000891200080D
:10008000000000005F010008000000000000000008
:100090005F010008000000005F0100085F01000828
:1000A0005F0100085F0100085F0100085F010008B0
:1000B0005F0100085F010008000000000000000070
:1000C0000348854600F0DCF800480047E1160008C8
:1000D000101A0020084B19680868203080F309883E
:1000E000022080F31488BFF36F8F3FBCAE4608BC7C
:1000F00004BC62B61847000024000020EFF3108013
:1001000072B6704780F310887047EFF309800E4B8A
:100110001A6820381060F0C044464D4656465F4687
:10012000F0C008B572B602F067F862B60CBC116890
:1001300008681030F0C8A046A946B246BB4680F316
:1001400009882038F0C81847240000200448804758
:1001500004480047FEE7FEE7FEE7FEE7FEE7FEE7AE
:1001600035120008C100000830B50B4601460020DA
:100170002022012409E00D46D5409D4205D31D46AD
:100180009540491B2546954040191546521E002DA5
:10019000F1DC30BDF0B51FB40646002082B0054644
:1001A0004024019100901BE0019922460F46304601
:1001B00000F054F8049A059B801A994110D3104618
:1001C0001946224600F03AF8361A8F410197224626
:1001D00001200021009F00F031F838184D410090B7
:1001E0002046641E0028DFDC019B00982946324629
:1001F00007B0F0BD03460B439B0703D009E008C9D5
:10020000121F08C0042AFAD203E00B780370401CC6
:10021000491C521EF9D27047D2B201E00270401C54
:10022000491EFBD270470022F6E710B513460A4676
:1002300004461946FFF7F0FF204610BD10B5202AEE
:1002400004DB0146203A9140002010BD914020235C
:100250009C1A0346E3401943904010BD10B5202A74
:1002600004DB0846203AD040002110BD0B46D340A5
:10027000D0402024A21A91400843194610BD000026
:10028000064C0125064E05E0E36807CC2B430C3CE9
:1002900098471034B442F7D3FFF716FFCC2A000872
:1002A000EC2A0008FCB500230124A2E027462A46D8
:1002B0009F403A406FD04D68012D05D0022D03D0EC
:1002C000112D01D0122D16D185680326AC465D0094
:1002D000AE46AE406546B543AC46CE687546AE40C8
:1002E00065462E43866046680D79BE43ED06ED0FE8
:1002F0009D4035434560C6685F000325BD40AE465E
:10030000AE4335468E68BE402E43C6604E68022E10
:1003100001D0122E14D1DE08B60036180196366AC6
:100320005D07B446EE0E0F25B54000966646AE4317
:10033000B4460D69009EB54066462E43019D2E626F
:1003400006687546AE430D79AD07AD0FBD40354328
:1003500005604D68ED004BD5294D6E6B26436E63ED
:100360009E08284DB6007519AC46AD689E07360F3D
:100370000F27B740BD4305273F07B84201D10027EB
:1003800015E0214FB84201D1012710E01F4FB842BC
:1003900002D102270BE02BE01D4FB84201D1032709
:1003A00005E01C4FB84201D1052700E00627B74001
:1003B0002F436546AF60184D2E684F689643FF0384
:1003C00000D516432E606E684F689643BF0300D574
:1003D00016436E60AE684F689643FF0200D5164321
:1003E000AE60EE684F689643BF0200D51643EE60DC
:1003F0005B1C0A681546DA4000D057E7FCBD0000D8
:1004000000100240000001400004005000080050AD
:10041000000C0050001C005000040140002A01D0D4
:1004200081617047816270470148806870470000B1
:1004300014000020024881680278891881607047A2
:100440001400002010B50848002401684022114320
:100450000160204600F00AF8002801D0012401E0E4
:1004600000F03CF8204610BD0020024000B50146D7
:1004700087B000220F2000F047F80F2000F03AF874
:100480001248816B01221143816305A9684600F07F
:10049000A7F900F0C5F90E49FFF766FE01220D49E4
:1004A00092070A600C4A401ECA604860002008613A
:1004B0008860084600F01EFC002802D0012007B02A
:1004C00000BD044800F031FCF9E7000000100240D4
:1004D00040420F00B8070020E70300000448416BCA
:1004E000012211434163816B020411438163704710
:1004F00000100240C106C90E012088400149086071
:100500007047000000E100E010B500F0D1FD10BD23
:10051000F8B504460078544D800672D5524E002737
:10052000403EB06BC00004D4B06BA9050843B06373
:1005300001274E480168C90511D40168821511438D
:100540000160FFF771FF009005E0FFF76DFF009974
:10055000401A642837D845480068C005F5D5326888
:100560000321090560680A400140914208D08103D7
:10057000890F032904D13168890301D50120F8BD11
:100580002A69032109040A4022D0084090421FD062
:10059000207880061CD528692A6988430121C9046E
:1005A0000A432A612A698A432A612861C0050FD556
:1005B000FFF73AFF009008E0FFF736FF0099411A75
:1005C0002B48814201D90320F8BD28698005F3D565
:1005D00061688803800F032805D1326800058243D3
:1005E00001400A4332602869032261681204114005
:1005F00008432861002F04D0B16B0120000781431C
:10060000B1632078C00705D0E868A1688008800041
:100610000843E8602078800705D5E8680C21884306
:10062000E1680843E8602078400706D5E8680321C0
:100630008902884321690843E8602078000706D5CD
:10064000E86803210903884361690843E86020786A
:10065000000606D5E868032189048843A169084398
:10066000E8600020F8BD000040100240007000402B
:1006700088130000F8B50E4605007DD05348006889
:10068000C007C00FB0420AD250480168490849006B
:10069000314301600068C007C00FB04271D12878B3
:1006A0004B4C800705D5E068F0218843A9680843D2
:1006B000E0602878C00752D06868022817D0032865
:1006C00018D02168012818D08905002959DAE16875
:1006D000890889000143E160FFF7A6FE69680746C3
:1006E000022912D003291CD0012926D033E0216829
:1006F0008903EAE721688901E7E74907E5E7FFF7AA
:1007000093FEC11B3348814223D8E0680007800F65
:100710000228F4D123E0FFF787FEC11B2D48814258
:1007200017D8E0680007800F0328F4D117E0FFF71F
:100730007BFEC11B274881420BD8E0680007800F71
:100740000128F4D10BE0FFF76FFEC11B2148814265
:1007500001D90320F8BDE0680007800FF3D11B48E2
:100760000168C907C90FB1420DD90168490849009C
:1007700031430160006800E003E0C007C00FB042F1
:1007800001D00120F8BD2878400706D5E068072190
:1007900009028843E9680843E0602878000707D524
:1007A000E0680721C90288432969C9000843E0605D
:1007B00000F056F8E168084A0906090F515CC84084
:1007C000064908600020FFF751FEF8BD00200240F6
:1007D0000010024088130000782A00082000002042
:1007E00010B50F2202600C4AD3689B079B0F436031
:1007F000D368F02423408360D46807231B021C4085
:10080000C460D268D2081A40026104480068C00778
:10081000C00F086010BD0000001002400020024020
:10082000044805490068C968044A4905490F515CF4
:10083000C84070472000002000100240912A0008A4
:10084000044805490068C968044A8904490F515C95
:10085000C84070472000002000100240912A000884
:1008600010B5184AD1680C20084004280BD008287D
:1008700010D00C2810D050680004410F0120C00394
:10088000491C884010BD1068C00601D50E4810BD37
:100890000E4810BD0E4810BD88020E4B000F185CAC
:1008A0000902D368890F491CDB0301D5084A05E01A
:1008B0001268D20601D5044A00E0044A5043FFF70B
:1008C00053FC10BD0010024000093D000024F4005C
:1008D00000127A00882A0008FEB505007ED0FE4C82
:1008E000E7680C20E66807400120000406402878ED
:1008F000C00747D0082F05D00C2F0AD101200004D3
:10090000864206D1206880033CD568680028E5D07F
:1009100038E0012069680004814203D12168014365
:10092000216011E0052301221B04920499422168F1
:1009300002D111432160F1E7814321602168014028
:100940000091206890432060686800280DD0FFF770
:100950006BFD009005E0FFF767FD0099401A6428E1
:100960007AD820688003F6D50CE0FFF75DFD009093
:1009700005E0FFF759FD0099401A6428F0D8206877
:100980008003F6D42878800755D50923E868042F1A
:100990000DD00C2F01D1002E09D000283BD02168AA
:1009A000994301432160FFF73FFD064627E0216898
:1009B000490701D5002891D061681F221202914396
:1009C0002A69120211436160216899430143216041
:1009D000FFF746FFE16809060A0F00E079E1BF4929
:1009E000895CC840BE4908600020FFF73FFD002831
:1009F00072D120E0FFF718FD801B0228B0D82068D4
:100A00004007F7D560681F21090288432969090258
:100A1000084360600FE02068400840002060FFF756
:100A200003FD064604E0FFF7FFFC801B022897D871
:100A300020684007F7D42878C0065FD5002F0CD077
:100A4000A869002849D02068FF21013108432060AF
:100A5000FFF7EAFC06462DE0C0E02068800502D5DD
:100A6000A8690028A7D06068072149038843296A3C
:100A7000084360606068297F0002000A0906084395
:100A80006060286A410B0120C003491C8840E1686E
:100A900009060A0F9149895CC84091490860002005
:100AA000FFF7E4FC002817D128E0FFF7BDFC801B0E
:100AB0000228A3D820688005F7D56068072149037C
:100AC0008843296A084360606068297F0002000A41
:100AD00009060843606011E0E1E02168FF20013071
:100AE00081432160FFF7A0FC064604E0FFF79CFC71
:100AF000801B022872D820688005F7D42878794EA8
:100B0000000724D568690028306910D00121084306
:100B10003061FFF789FC009005E0FFF785FC009944
:100B2000401A02285AD830698007F6D50FE04008ED
:100B300040003061FFF778FC009005E0FFF774FC9F
:100B40000099401A022849D830698007F6D42878DD
:100B5000400765D500200290A06BC00006D4A06BB2
:100B6000012109070843A063012002905E48016843
:100B7000C90511D40168821511430160FFF754FCC7
:100B8000009005E0FFF750FC0099401A642825D832
:100B900055480068C005F5D5FF20AA68013082429B
:100BA00003D131690143316111E001218902002A39
:100BB00007D005231B029A4203D132690A433261EE
:100BC000EFE7326982433261306988433061A86857
:100BD00000280FD0FFF728FC009007E05EE0FFF749
:100BE00023FC0099411A4148814257D83069800559
:100BF000F5D50DE0FFF718FC009006E0FFF714FCB8
:100C00000099411A3948814248D830698005F5D4A5
:100C10000298002804D0A06B012109078843A06333
:100C2000686A002864D00C2F3ED0012636060228C0
:100C3000206805D0B0432060FFF7F6FB05462FE0A3
:100C4000B0432060FFF7F0FB074604E0FFF7ECFB42
:100C5000C01B022822D820688001F7D4E96AA86A5C
:100C6000E2680843296BFD231B049A4311430843A0
:100C7000E060206830432060FFF7D6FB054604E0C3
:100C8000FFF7D2FB401B022808D820688001F7D567
:100C90002EE0FFF7C9FB401B022801D90320FEBD4F
:100CA00020688001F5D423E00128F8D0E068012114
:100CB0000904AA6A014091420BD10F218904EA6A12
:100CC0000140914205D1032189050840296B8842E2
:100CD0000ED00120FEBD000000100240782A00085E
:100CE00020000020401002400070004088130000E7
:100CF0000020EFE770B5040005D025462035687E5A
:100D0000002802D006E0012070BD00202876204691
:100D100000F00AF802206876211D206800F0BCFA75
:100D200001206876002070BD70470268D3680121F9
:100D30000B43D360006882685207520F062A02D024
:100D400002680A43026000207047704770B504468D
:100D5000006801690025C9438907002915DBC168BE
:100D6000C943890711D4E91E01610120207620685A
:100D700080698007204602D0FFF7E7FF04E000F01B
:100D800078F8204600F076F8257620680169C94396
:100D9000490717D4C168C943490713D40421C9437B
:100DA000016102202076206880698005800F20463E
:100DB00002D0FFF7CAFF04E000F05BF8204600F025
:100DC00059F8257620680169C943090716D4C16816
:100DD000C943090712D40821C943016104202076C0
:100DE0002068C0698007204602D0FFF7AEFF04E00C
:100DF00000F03FF8204600F03DF8257620680169B4
:100E0000C943C90617D4C168C943C90613D4102100
:100E1000C9430161082020762068C0698005800FE1
:100E2000204602D0FFF791FF04E000F022F82046B0
:100E300000F020F8257620680169C943C90708D168
:100E4000C168C943C90704D1891E0161204600F069
:100E500012F820680169C943490609D4C168C94329
:100E6000490605D44021C9430161204600F00CF831
:100E700070BD7047704710B500680121890788422E
:100E800001D1FFF7D7FA10BD704710B5040003D0A9
:100E9000606F002802D007E0012010BD0021702003
:100EA0000155204600F026F824206067206801687C
:100EB000490849000160204600F0B0FA0128ECD052
:100EC000606A002802D0204600F012FA20684168CB
:100ED0000922D20291434160206881682A2291430D
:100EE000816020680168012211430160204600F002
:100EF00065FA10BD10B586B0044614216846FFF7A8
:100F000092F90F492068884218D10E48416B01229E
:100F1000920311434163C26A02210A43C262C06A5A
:100F2000019108400590C02000900021032002910B
:100F30000491039069460448FFF7B4F906B010BD68
:100F4000003801400010024000040050FFB5044684
:100F5000406F83B017460D4620285CD1002D0AD083
:100F6000002F08D0A168C001814207D12069002864
:100F700004D1E80702D0012007B0F0BD2046603060
:100F80000290007C012846D00298012101740020C3
:100F9000E06721206067FFF747FA26464036019058
:100FA000378277820120A1680003814202D1206943
:100FB000002802D02F46002511E000270FE0002274
:100FC0008021204600F03EFB002815D1002F15D0CF
:100FD0002168387888627F1C708A401E7082708A0F
:100FE000019B002806980090E9D10022402120466C
:100FF00000F028FB002808D00320BDE728882168DE
:10100000C005C00D8862AD1CE6E72020606702992C
:1010100000200874B0E70220AEE7FEE770B586B0A6
:1010200014216846FFF7FFF81348C16A01252943D8
:10103000C162C16A29400591C16A02242143C1628B
:10104000C06A052620403607059000222946304612
:10105000FFF7E4F9012202213046FFF7DFF9032010
:101060000090002002900195694603943046FFF7F6
:1010700019F906B070BD00000010024010B50A4812
:1010800008490160E1214902416000218160C1609D
:1010900001618161C1610C22016242614162FFF71D
:1010A000F4FE10BD003801409000002070470000A1
:1010B0008307FF22DB0E9A408907090E994000281A
:1010C0000BDA0007000F0838830808489B0018183F
:1010D000C36993430B43C3617047830804489B0073
:1010E0001B181868904308431860704700ED00E033
:1010F00000E400E07047000000250C4C01260527A5
:101100003F076078002806D0002201213846FFF70B
:1011100085F9657005E0012211463846FFF77EF932
:101120006670012000F01EFBEBE7000000000020CD
:10113000012000F017FBFBE7052700250B4C3F07BC
:1011400001262078002806D0002202213846FFF729
:1011500065F9257005E0012202213846FFF75EF9A6
:101160002670012000F0FEFAEBE7000000000020EE
:101170007D2486B0E400142206496846FFF73AF859
:10118000FF23082269460448FFF7E0FE204600F0EE
:10119000E9FAF0E7642A00089000002010B5FEF795
:1011A000ADFF044601F0B6FA002803D00120034940
:1011B000000748602046FEF7A5FF10BD00ED00E0E7
:1011C00030B599B034216846FFF72DF814210DA8E9
:1011D000FFF729F81C2112A8FFF725F81448016829
:1011E0000322D2029143C214891801600220102107
:1011F00000900491099040040B9000010125002407
:101200000C9003950A946846FFF766FB0F200D903B
:1012100003200E900F941094012111940DA8FFF754
:1012200029FA12A812951494FFF772F919B030BD7B
:101230000070004010480168821511430160C168C8
:101240000E4A1140C16001680D4A11400160816879
:1012500049084900816001680122920491430160BC
:10126000C168FD2212049143C1600021016105495A
:10127000C003886070470000001002400C40FF88E7
:10128000F6FFF6FE00ED00E010B50248FFF75EFD48
:1012900010BD0000B807002070B5026801239B074D
:1012A000114C124D984203D0A04201D0A84203D164
:1012B0007026B2434E683243984203D0A04201D018
:1012C000A84204D103231B029A43CB681A4380230C
:1012D0009A430B691A4302608A68C2620968816294
:1012E0000121416170BD000000080140001401406F
:1012F00010B5818CC90707D001684A6801235B04D7
:101300009A43836A1A434A60818C890707D501682A
:101310004A6801231B049A43C36A1A434A60818CBA
:10132000490707D501684A6801239B049A43036B68
:101330001A434A60818C090707D501684A6801236E
:10134000DB039A43436B1A434A60818CC90607D575
:101350000268916801231B039943836B19439160D1
:10136000818C890607D501688A6801235B039A434B
:10137000C36B1A438A60818C490612D503685A6888
:1013800001210905046C8A4322435A60026C8A4297
:1013900007D10268516803235B059943436C1943E5
:1013A0005160818C090607D501684A680123DB0476
:1013B000806C9A4302434A6010BD0000F8B50026D5
:1013C0000446C667FFF730F8054620680068124FEC
:1013D000000709D501212B46002249052046009728
:1013E00000F030F900280DD12068006840070BD5C7
:1013F00001212B46002289052046009700F022F9A2
:10140000002801D00320F8BD20206067A067603469
:1014100026740020F8BD0000FFFFFF01F8B5044668
:101420002669A268E76932436669102000253E43B9
:101430002368324378491E68784F3E4016431E6049
:1014400023685A6803263603B243E66832435A607B
:101450002368A2698B4201D0266A32439E680B271B
:101460003F02BE4316439E606D4E23686D4AB342F1
:101470000CD1D2689207920F06D0012A38D0022AE6
:1014800034D0032A20D11EE001201DE0664EB34275
:101490000AD1D2680C26324026D0042A28D0082A45
:1014A00024D00C2A10D10EE08B420DD1D668032235
:1014B0009202164018D001229202B61A18D0B61A1B
:1014C00014D0964200D10820564A0126403A574F80
:1014D000F6038B4236D100280CD002280DD0042808
:1014E00012D008281FD11CE00020EDE70220EBE716
:1014F0000420E9E7FFF794F908E01068C00601D579
:10150000384605E04A4803E0FFF7AAF9002873D0FF
:10151000626851005118814205D81103814202D3FB
:1015200003E03046F4E7012566E0010E06025008AC
:10153000002330185941FEF72DFE03210902411AFC
:101540003C4A55E0E169B14232D1030000F0ABF80A
:1015500009070A0D06250606062B0600E3E7FFF736
:101560005FF91CE0FFF76CF919E010686168C006CC
:1015700002D54808304A01E0304A48088018FEF792
:10158000F3FD80B201462E4A10399142CBD8511C4E
:1015900001400007400F08432CE0FFF761F9616844
:1015A00040004A08EAE76168012248081204E5E7BA
:1015B000030000F078F809070A0D06260606062C37
:1015C0000600B0E7FFF72CF91DE0FFF739F91AE044
:1015D00010686168C00602D54808C01902E01448C6
:1015E0004A081018FEF7C0FD80B20146144A1039AF
:1015F000914298D82168C86000202066606628461D
:10160000F8BDFFF72DF961684A088018EAE76168BC
:1016100048088019E6E7000000480040F369FFEF42
:1016200000380140401002400044004000093D00E5
:101630000024F400FFFC0F0000127A000048E801CB
:10164000EFFF0000FFB581B017460E4604460A9D25
:1016500009E0681C07D0FEF7E7FE0499401AA8428B
:101660000CD8002D0AD02068C1693046884318D0B4
:101670000020B842EDD0002005B0F0BD2068016820
:10168000FF22A13291430160206881684908490026
:10169000816020206067A0670020603420740320F0
:1016A000EAE70120E5E730B47446641E2578641C3F
:1016B000AB4200D21D46635D5B00E31830BC1847A7
:1016C00002E008C8121F08C1002AFAD1704770470B
:1016D000002001E001C1121F002AFBD17047000069
:1016E0009CB0FEF7AFFEFFF76BFDFFF797FCFFF72F
:1016F000C5FC1C2216496846FEF77CFD00216846A1
:1017000000F03DF8134C124960601C221C3107A800
:10171000FEF770FD002107A800F031F80C49A06029
:101720001C2238310EA8FEF765FD00210EA800F03E
:1017300026F80749E0601C22543115A8FEF75AFD2F
:10174000002115A800F01BF8206100F013F8FEE757
:10175000F42900080000002001460020842900D060
:10176000C81C704710B5002800D1012000F0B8FC5B
:10177000002010BD10B500F003FD002010BD7FB5A6
:101780000D46044641690820205E002911D0A16958
:1017900000290ED0FFF7E0FF6B46A269616907C31D
:1017A0002B4622692168606800F07BFF039004B03B
:1017B00070BDFFF7D1FF03A901910090208A2B464D
:1017C00082B22168606800F043FF012801D0002048
:1017D000EDE70398EBE70000F8B5134C0F46666998
:1017E00005462068001D00F0A3FB681C07D1002FF0
:1017F00005D021680D48091D00F0EAFBF8BD2068FE
:10180000751945602168B54204D2A068091D00F031
:10181000C7FBF8BD6068091D00F0C2FB206B854264
:10182000F7D22563F8BD0000240000201009002035
:10183000F8B5054600F0D8FB294C2069401C206112
:101840002068284F002803D0E069002827D02CE02A
:1018500025602069012828D1002614207043C01972
:1018600000F090FB761C072EF7D31E488C3000F05A
:1018700089FB1C48A03000F085FB1A48B43000F00A
:1018800081FB1848C83000F07DFB1648DC3000F0C2
:1018900079FB14488C3060601430A06005E020684B
:1018A000E96AC06A884200D82560E06A401CE062AC
:1018B000E86AA169884200D9A06114214843C0198F
:1018C000291D00F085FB00F09BFBE069002806D095
:1018D0002068E96AC06A884201D200F0C1FBF8BD05
:1018E000240000203408002038B500F07DFB114CA6
:1018F000A06800281AD1104800F044FB0E481430AC
:1019000000F040FB0C48206014300B4B606000205E
:1019100028331A46009048320C210A2000F0C0FCFF
:10192000A060002802D005A100F0A6FB00F068FB33
:1019300038BD00006000002024090020546D725161
:101940000000000010B5026C0C46002A0CD0C168E3
:101950008B18C36041688B4201D2194601E00168CF
:10196000C1602046FEF746FC10BDF8B5856B1746F2
:1019700004460026026C002A11D0002F19D0E0681E
:10198000FEF738FCE168206C091AE1602268914298
:1019900002D26168081AE060022F17D019E02068AF
:1019A000002816D1606800F013FF06460020606032
:1019B0000FE0A068FEF71EFC216CA0684018A06034
:1019C0006168884205D32068A06002E0002D00D045
:1019D0006D1E6D1CA5633046F8BD10B50446403041
:1019E000407C002805D0012806D0022807D072B616
:1019F000FEE7206B00F012FB204600F00FFB10BD4D
:101A000003210E488902420705D0C01DC0080B4AB9
:101A1000C000821A891A0A4A0023411809C20839EB
:101A2000C908C900183A11604B600B600B1A0AC054
:101A300093600120C0075360D06070470C0A0020FB
:101A4000840000200F4E104C3746C83F11E000F0D4
:101A5000CBFAF068C568281D00F06AFA2069401EBC
:101A60002061E068401EE06000F0CAFA2846FFF7F7
:101A7000B4FFE0680028EAD138680128F9D900F0FD
:101A8000EFFAF6E7FC0800202400002010B503461A
:101A90000298002906D00260C3630164012100F0AE
:101AA0001FFC10BD0060F7E7FFB581B00C9C9000F3
:101AB000236B001F1818C6080A9DF600700701D096
:101AC00072B6FEE723180A5C20331A750A5C002AF6
:101AD00002D0401C1028F5D320464030002700904B
:101AE000C770072D00D30625E562A764201D656435
:101AF00000F053FA2046183000F04FFA2461072016
:101B0000401B6462A061E764009807743046049A41
:101B1000019900F0FDF920600B98002800D00460C6
:101B200005B0F0BD30B5114900E011460A688242A7
:101B3000FBD34B685C18844203D140681818486096
:101B4000084643681C18944209D1084C103C24688C
:101B5000A24209D052689A1842600A68126802606C
:101B6000814200D0086030BD0460F9E784000020A5
:101B700070B5002441600B4D0061914206D8D11A26
:101B80008269914206D2011D686807E09A4203D239
:101B9000994201D3012403E0011D286800F000FAF6
:101BA000204670BD6000002010B5044600F01CFA0D
:101BB000A06B002804D0002400F022FA204610BDBB
:101BC0000124F9E730B587B0294D47E00498002893
:101BD00044DB069C6069002802D0201D00F0A8F9B3
:101BE00002A800F0A5F8024604980300FFF75BFD89
:101BF0000A06060636232F06063623360598A169FF
:101C0000034641182046FFF7B3FF002826D0616A3B
:101C100020468847E069012820D1002000900598DF
:101C2000A169002342181946204600F0B9FE002899
:101C300014D172B6FEE70598A061002805D081187E
:101C400013462046FFF794FF08E072B6FEE728200F
:101C5000005D002802D1204600F0E0F9002204A92E
:101C6000A86800F045FC0028B0D107B030BD0000E6
:101C700060000020FEB50F46054600F0B5FA01A849
:101C800000F056F804460198002802D000F006FE45
:101C9000FEBD1E4E002F10D070680068002833D0A3
:101CA0000027291B3A46B06800F0F8F900F0F6FD6D
:101CB0000028EDD100F0D4F9FEBDA542F1D800F026
:101CC000EDFD30682746C068C468201D00F030F97B
:101CD000E069012812D1A0692B4641193A462046F5
:101CE000FFF746FF002809D0002003460146009078
:101CF0002A46204600F054FE002803D0616A2046A0
:101D00008847FEBD72B6FEE70127CAE760000020E3
:101D1000064841680968002905D04168C968C96852
:101D20004968016370470021C943FAE72400002095
:101D300070B5054600F0E8FC064E04463069844262
:101D400003D200F009F8012000E0002028602046BE
:101D5000346170BD60000020F8B5164D20E0C06809
:101D6000C4680668201D00F0E3F8616A20468847D1
:101D7000E069012814D1A0698019B04206D9246114
:101D80006060211D286800F00BF909E0002003467F
:101D9000014600903246204600F002FE002807D09F
:101DA000286801680029DAD1696829606860F8BD8F
:101DB00072B6FEE76000002003480068401C72B65F
:101DC00000D0FEE7FEE700008C000020074C2068F2
:101DD0000168002907D0C06800210068FFF74AFFAA
:101DE000FFF7F0FEF3E701210020F7E76000002095
:101DF000F8B5044600F0F8F8254640350526AE57FC
:101E0000274624370BE0606A00280AD0384600F0E5
:101E100013FD002801D000F083F9761E76B2002E63
:101E2000F1DC0027FF436F7100F0EAF800F0DCF806
:101E30000426AE572046103000900BE020690028A1
:101E40000AD0009800F0F8FC002801D000F068F9F2
:101E5000761E76B2002EF1DC2F7100F0D1F8F8BDBD
:101E6000F8B50546002700F0BFF9284E3068002875
:101E700001D1FFF7C5FDF06805423FD1002D3DD0EF
:101E80000835680708D06807400F0821081A451967
:101E9000680701D072B6FEE7002D2FD0706885422A
:101EA0002CD81A48103001460C6801E020460C4638
:101EB0006168A94202D221680029F7D131688C42B9
:101EC0001CD007682168016060680837411B102931
:101ED00008D96019420701D072B6FEE7416065601B
:101EE000FFF720FE61687068401A7060B268904227
:101EF00000D2B060F0680143002003C400F0CEFCC3
:101F0000780701D072B6FEE73846F8BD74000020AD
:101F100010B50124031F24061C601B1F1960191F24
:101F2000024B0B60143940380A6010BDB91D00081F
:101F30004368826801699A60836842685A604A68A7
:101F4000824201D182684A60002202610868401E14
:101F50000860086870470000034B0360184654305F
:101F6000086080201060704710010020044B03605F
:101F7000184654300860FF200130106070470000A0
:101F8000640300200146083100224160D243C16051
:101F9000826001610021016070470021016170478A
:101FA00030B50B685A1C02D00246083202E00269C2
:101FB00004E02246546825689D42FAD953684B6074
:101FC00099608A60516008610168491C016030BDF8
:101FD00042684A6093688B609368596091600861B9
:101FE0000168491C0160704772B604480168491CC9
:101FF000BFF34F8FBFF36F8F016070478C000020DD
:1020000005490868002804D0401E086000D162B667
:10201000704772B6FEE700008C00002070B5002803
:102020001AD004460D4D083C6068E968084201D1A9
:1020300072B6FEE72268002A01D072B6FEE7884336
:10204000606000F0D1F860686968401868602046F8
:10205000FFF768FD00F022FC70BD00007400002056
:102060000120044900074860BFF34F8FBFF36F8F13
:102070007047000000ED00E010B5074B0022D400CF
:102080001C59002C03D0521C082AF8D310BDD200D2
:102090009950D118486010BDF407002070B515465E
:1020A0000E460446FFF7A0FF204640300422825629
:1020B0000021521C00D1017105228256521C00D110
:1020C0004171FFF79DFFA06B002805D120462A46ED
:1020D0003146243000F03CF82046FFF789FE70BD01
:1020E00010B502000FD00948806B002801D072B6ED
:1020F000FEE700F079F800211046FFF76DFB00F0D5
:10210000CDFB002801D1FFF7ABFF10BD240000205C
:1021100002498A6A026049694160704724000020D0
:1021200001490120486270472400002010B50C4688
:10213000002809D0054909681831FFF731FF01214E
:102140002046FFF749FB10BD72B6FEE724000020D1
:1021500070B514460D4600280DD00849096818319D
:10216000FFF736FF002C01D00025ED43214628461D
:10217000FFF732FB70BD72B6FEE7000024000020BE
:1021800030B587B00024039405AA04A903A80494D9
:10219000FFF7E2FE04990398009401910290002356
:1021A0000DA10F48059A00F07CFA0E4D00286863D7
:1021B00010D000F0C9FB012803D0401C0AD172B630
:1021C000FEE772B60020C04328630120E8616C611D
:1021D00000F03EF807B030BD49444C450000000017
:1021E000451A0008240000200248816B491C8163C5
:1021F000704700002400002010B51348816B0029AF
:1022000002D00121416210BD0021416281690F4A63
:1022100002E0002915D0491E14234B43D358002B4C
:10222000F7D014234B439A18536814465B6808345C
:102230005360A34201D15B685360DA680260816138
:1022400010BD72B6FEE70000240000203408002014
:1022500070B50F48016AFF22120411430162016A3E
:102260001202114301620B4C00252561A5610A4849
:102270007D21C9000068FDF777FF401E60610720DF
:10228000206106480560FDF725FF002070BD0000B5
:1022900000ED00E000E000E0200000208C000020C5
:1022A000F8B5069D002806D0002B06D0002A08D0DD
:1022B000002904D009E072B6FEE772B6FEE772B6F6
:1022C000FEE7002901D072B6FEE748241C4601262D
:1022D00040339E712B460094FFF7D8FB2046F8BD93
:1022E00070B50D46040025D0FFF77EFE216CE06B33
:1022F00048432168411861600021A1632168A16001
:10230000E06B216C401E484321684118E1600021C8
:10231000C94320464030017141713038002D0BD047
:10232000FFF730FE20462430FFF72CFEFFF768FE53
:10233000012070BD72B6FEE721690029F6D000F0D9
:102340007BFA0028F2D0FFF78BFEEFE7FFB50026FF
:1023500083B01D46040003D00498002802D006E094
:1023600072B6FEE7206C002801D072B6FEE7022D9F
:1023700004D1E06B012801D072B6FEE700F0B4F999
:102380000027002804D10598002801D072B6FEE786
:10239000FFF72AFEA06BE16B884207D3022D05D020
:1023A0000598002817D0002E18D01BE02A4620469A
:1023B0000499FFF7DAFA616A002903D02046243035
:1023C00000F03AFA002801D0FFF74AFEFFF718FEA6
:1023D000012007B0F0BDFFF713FE22E06846FFF7CB
:1023E00097FE0126FFF70CFEFFF7FEFEFFF7FCFD50
:1023F0002046403004214156491C00D10771052177
:102400004156491C00D14771FFF7FAFD05A96846FE
:1024100000F0F0F8002806D02046FFF7E9FC00F0B5
:102420003DFA0020D5E7FFF7DFFDA06BE16B8842A6
:1024300010D1FFF7E5FD204610300599FFF776FE35
:102440002046FFF7D5FC00F029FA0028A0D1FFF7BD
:1024500007FE9DE7FFF7D4FD2046FFF7C9FC00F01B
:102460001DFA95E7FFB581B01E46040003D002981F
:10247000002802D006E072B6FEE7206C002801D0EA
:1024800072B6FEE7022E04D1E06B012801D072B6CD
:10249000FEE7FDF733FE0090A06BE16B884208D3A6
:1024A000022E06D000240098FDF72CFE204605B031
:1024B000F0BD2046403005254557074632462046A8
:1024C0000299FFF752FA681C03D06D1C7D7101243C
:1024D000E9E7606A0028FAD02046243000F0ACF921
:1024E0000028F4D003980028F1D001210160EEE724
:1024F000F7B5002582B0040003D00398002802D06D
:1025000006E072B6FEE7206C002801D072B6FEE746
:1025100000F0EAF80026002804D10498002801D031
:1025200072B6FEE7FFF760FDA76B002F15D02046BF
:102530000399FFF707FA7F1EA7632069002807D0D9
:102540002046103000F078F9002801D0FFF788FD10
:10255000FFF756FD012005B0F0BD0498002802D019
:10256000002D03D006E0FFF74BFD27E06846FFF79C
:10257000CFFD0125FFF744FDFFF736FEFFF734FDE1
:102580002046403004214156491C00D106710521E6
:102590004156491C00D14671FFF732FD04A9684637
:1025A00000F028F8002820460AD0FFF721FC00F0B0
:1025B00075F92046FFF7F8FA0028B3D00020CAE7E3
:1025C000FFF7F2FA00280ED0204624300499FFF7D6
:1025D000ADFD2046FFF70CFC00F060F90028A1D10A
:1025E000FFF73EFD9EE72046FFF702FC00F056F99C
:1025F00098E70000F8B50C46050012D0002C12D068
:10260000FFF7F2FC114B5A696E682068911B471C5A
:102610000BD02F689B6A9F420CD096420AD80124A7
:1026200004E072B6FEE772B6FEE70024FFF7E8FCAE
:102630002046F8BD884205D9401A20602846FFF799
:1026400067FDF2E700202060E9E700002400002099
:10265000FFB585B0164690000F9FFFF701FC0500FF
:102660001CD05420FFF7FCFB040014D000205121A3
:10267000256308550E990091039001970294324604
:10268000089B06990598FFF70FFA2046FFF7D0F848
:10269000012009B0F0BD2846FFF7C0FC0020C04370
:1026A000F7E7F0B585B007460B9D0C9C0A98002D06
:1026B00015D0002C15D054262563022551263555FA
:1026C000002504AE00900196039502943846FFF76A
:1026D000EBF92046FFF7ACF8049805B0F0BD72B6F0
:1026E000FEE772B6FEE700000648C169002904D083
:1026F000806B002803D00020704701207047022023
:102700007047000024000020014840697047000025
:1027100024000020F8B52C4C0027A06B002808D01E
:10272000206A401C2062606A002800D001273846D9
:10273000F8BD6669761C66610ED160680068002885
:1027400001D072B6FEE76068A1686160A060A06A0F
:10275000401CA062FFF7DCFA206B86420AD3606857
:102760000068002810D06068C068C5686868864244
:102770000DD2206320681421C06A484313490858C9
:102780000128D0D90127CEE70020C043F1E7281D5A
:10279000FFF7CEFBA86A002803D028461830FFF7C1
:1027A000C7FBE86AA169884200D9A06114214843A7
:1027B00006494018291DFFF70BFCE86A2168C96A21
:1027C0008842CCD30127CAE7240000203408002027
:1027D00070B500210446002828D0154D2868844291
:1027E00001D072B6FEE7A06C002808D0401EA0649D
:1027F000636CE26A9A4219D0002802D016E072B6E1
:10280000FEE7201DFFF794FB606C0721E062081AC9
:10281000A061E06AA969884200D9A86114214843EF
:1028200004494018211DFFF7D3FB0121084670BD64
:10283000240000203408002070B5C068C468002C53
:102840000BD0204618300646FFF772FB114DA86BDF
:10285000002804D0314610480FE072B6FEE7201D74
:10286000FFF766FBE06AA969884200D9A8611421D4
:1028700048430949B4394018211DFFF7A9FBE06A14
:102880002968C96A884202D90120686270BD0020A7
:1028900070BD000024000020E8080020F8B5284C96
:1028A0000025A06B2E46002808D0FFF79DFBA06BEB
:1028B000401EA063A06B002802D03DE072B6FEE788
:1028C0002169204F00291DD136E0F868C5682846E7
:1028D0001830FFF72DFB281DFFF72AFBE86AA169D6
:1028E000884200D9A061142148431649B4394018E0
:1028F000291DFFF76DFBE86A2168C96A884201D388
:102900000120606238680028DFD1002D01D0FFF778
:10291000FFF9256A002D09D00127FFF7FBFE0028EB
:1029200000D067626D1EF8D100202062606A002826
:1029300002D00126FFF794FBFFF762FB3046F8BD9B
:1029400024000020E808002010B586B0FEF7CCFF78
:102950000F4CA068002819D000200390049005AA0D
:1029600004A903A8FFF702FB0220039A0499009030
:1029700002920191002307A10848059AFFF791FEF2
:10298000E060002802D0012006B010BD72B6FEE75C
:1029900060000020546D722053766300CD1D000846
:1029A000FEB51D4603460020089E002B13D0104C98
:1029B000A768002F0ED002930192009106290FDA2A
:1029C000FFF792FE022808D000231A466946A06845
:1029D000FFF7BCFCFEBD72B6FEE700233246F5E70A
:1029E00000232A4669463846FFF73CFDFEBD00003D
:1029F000600000209C2A000831110008000000003F
:102A00000000000080000000000000000000000046
:102A1000A82A00083911000800000000000000008A
:102A2000800000000000000000000000B42A000840
:102A3000F9100008FEFF0000000000008000000008
:102A40000000000000000000C02A0008711100080A
:102A500000000000000000008000000000000000F6
:102A60000000000068656C6C6F0D0A00000000003B
:102A70000000000000000000000000000000000056
:102A80000102030406070809030406080C101820B5
:102A9000300000000001020304000000646566616C
:102AA000756C745461736B004750494F546573746F
:102AB000000000005461736B5465737400000000E3
:102AC000556172745465737400000000EC2A0008AC
:102AD0000000002090000000C01600087C2B0008B9
:102AE0009000002080190000D016000801000000AE
:102AF00000000000000000000000000000000000D6
:102B000001000000040000000000000000002000A0
:102B100000000000000000000000000000000000B5
:102B200000000000000000000000000000000000A5
:102B30000000000000000000000000000000000095
:102B40000000000000000000000000000000000085
:102B50000000000000000000000000000000000075
:102B60000000000000000000000000000000000065
:0C2B70000000000000000000AAAAAAAAB1
:04000005080000C12E
:00000001FF
