:020000040800F2
:10000000101A00204D010008C11000082B10000834
:1000100000000000000000000000000000000000E0
:1000200000000000000000000000000009110008AE
:1000300000000000000000000B010008C9110008CA
:100040005F0100085F0100085F0100085F01000810
:100050005F0100085F0100085F0100085F01000800
:10006000000000005F0100085F0100085F01000858
:100070005F0100085F01000800000000B5120008E1
:10008000000000005F010008000000000000000008
:100090005F010008000000005F0100085F01000828
:1000A0005F0100085F0100085F0100085F010008B0
:1000B0005F0100085F010008000000000000000070
:1000C0000348854600F0DCF800480047191700088F
:1000D000101A0020084B19680868203080F309883E
:1000E000022080F31488BFF36F8F3FBCAE4608BC7C
:1000F00004BC62B61847000028000020EFF310800F
:1001000072B6704780F310887047EFF309800E4B8A
:100110001A6820381060F0C044464D4656465F4687
:10012000F0C008B572B602F047F962B60CBC1168AF
:1001300008681030F0C8A046A946B246BB4680F316
:1001400009882038F0C81847280000200448804754
:1001500004480047FEE7FEE7FEE7FEE7FEE7FEE7AE
:1001600061120008C100000830B50B4601460020AE
:100170002022012409E00D46D5409D4205D31D46AD
:100180009540491B2546954040191546521E002DA5
:10019000F1DC30BDF0B51FB40646002082B0054644
:1001A0004024019100901BE0019922460F46304601
:1001B00000F054F8049A059B801A994110D3104618
:1001C0001946224600F03AF8361A8F410197224626
:1001D00001200021009F00F031F838184D410090B7
:1001E0002046641E0028DFDC019B00982946324629
:1001F00007B0F0BD03460B439B0703D009E008C9D5
:10020000121F08C0042AFAD203E00B780370401CC6
:10021000491C521EF9D27047D2B201E00270401C54
:10022000491EFBD270470022F6E710B513460A4676
:1002300004461946FFF7F0FF204610BD10B5202AEE
:1002400004DB0146203A9140002010BD914020235C
:100250009C1A0346E3401943904010BD10B5202A74
:1002600004DB0846203AD040002110BD0B46D340A5
:10027000D0402024A21A91400843194610BD000026
:10028000064C0125064E05E0E36807CC2B430C3CE9
:1002900098471034B442F7D3FFF716FF6C2F0008CD
:1002A0008C2F0008FCB500230124A2E027462A4633
:1002B0009F403A406FD04D68012D05D0022D03D0EC
:1002C000112D01D0122D16D185680326AC465D0094
:1002D000AE46AE406546B543AC46CE687546AE40C8
:1002E00065462E43866046680D79BE43ED06ED0FE8
:1002F0009D4035434560C6685F000325BD40AE465E
:10030000AE4335468E68BE402E43C6604E68022E10
:1003100001D0122E14D1DE08B60036180196366AC6
:100320005D07B446EE0E0F25B54000966646AE4317
:10033000B4460D69009EB54066462E43019D2E626F
:1003400006687546AE430D79AD07AD0FBD40354328
:1003500005604D68ED004BD5294D6E6B26436E63ED
:100360009E08284DB6007519AC46AD689E07360F3D
:100370000F27B740BD4305273F07B84201D10027EB
:1003800015E0214FB84201D1012710E01F4FB842BC
:1003900002D102270BE02BE01D4FB84201D1032709
:1003A00005E01C4FB84201D1052700E00627B74001
:1003B0002F436546AF60184D2E684F689643FF0384
:1003C00000D516432E606E684F689643BF0300D574
:1003D00016436E60AE684F689643FF0200D5164321
:1003E000AE60EE684F689643BF0200D51643EE60DC
:1003F0005B1C0A681546DA4000D057E7FCBD0000D8
:1004000000100240000001400004005000080050AD
:10041000000C0050001C00500004014042691346CB
:100420000B401B0491430B4383617047002A01D0AA
:1004300081617047816270470148806870470000A1
:10044000180000200248816802788918816070478E
:100450001800002010B5084800240168402211430C
:100460000160204600F00AF8002801D0012401E0D4
:1004700000F03CF8204610BD0020024000B50146C7
:1004800087B000220F2000F047F80F2000F03AF864
:100490001248816B01221143816305A9684600F06F
:1004A000A7F900F0C5F90E49FFF75EFE01220D49DC
:1004B00092070A600C4A401ECA604860002008612A
:1004C0008860084600F01EFC002802D0012007B01A
:1004D00000BD044800F031FCF9E7000000100240C4
:1004E00040420F00BC070020E70300000448416BB6
:1004F000012211434163816B020411438163704700
:1005000000100240C106C90E012088400149086060
:100510007047000000E100E010B500F0D3FD10BD11
:10052000F8B504460078544D800672D5524E002727
:10053000403EB06BC00004D4B06BA9050843B06363
:1005400001274E480168C90511D40168821511437D
:100550000160FFF771FF009005E0FFF76DFF009964
:10056000401A642837D845480068C005F5D5326878
:100570000321090560680A400140914208D08103C7
:10058000890F032904D13168890301D50120F8BD01
:100590002A69032109040A4022D0084090421FD052
:1005A000207880061CD528692A6988430121C9045E
:1005B0000A432A612A698A432A612861C0050FD546
:1005C000FFF73AFF009008E0FFF736FF0099411A65
:1005D0002B48814201D90320F8BD28698005F3D555
:1005E00061688803800F032805D1326800058243C3
:1005F00001400A43326028690322616812041140F5
:1006000008432861002F04D0B16B0120000781430B
:10061000B1632078C00705D0E868A1688008800031
:100620000843E8602078800705D5E8680C218843F6
:10063000E1680843E8602078400706D5E8680321B0
:100640008902884321690843E8602078000706D5BD
:10065000E86803210903884361690843E86020785A
:10066000000606D5E868032189048843A169084388
:10067000E8600020F8BD000040100240007000401B
:1006800088130000F8B50E4605007DD05348006879
:10069000C007C00FB0420AD250480168490849005B
:1006A000314301600068C007C00FB04271D12878A3
:1006B0004B4C800705D5E068F0218843A9680843C2
:1006C000E0602878C00752D06868022817D0032855
:1006D00018D02168012818D08905002959DAE16865
:1006E000890889000143E160FFF7A6FE69680746B3
:1006F000022912D003291CD0012926D033E0216819
:100700008903EAE721688901E7E74907E5E7FFF799
:1007100093FEC11B3348814223D8E0680007800F55
:100720000228F4D123E0FFF787FEC11B2D48814248
:1007300017D8E0680007800F0328F4D117E0FFF70F
:100740007BFEC11B274881420BD8E0680007800F61
:100750000128F4D10BE0FFF76FFEC11B2148814255
:1007600001D90320F8BDE0680007800FF3D11B48D2
:100770000168C907C90FB1420DD90168490849008C
:1007800031430160006800E003E0C007C00FB042E1
:1007900001D00120F8BD2878400706D5E068072180
:1007A00009028843E9680843E0602878000707D514
:1007B000E0680721C90288432969C9000843E0604D
:1007C00000F056F8E168084A0906090F515CC84074
:1007D000064908600020FFF751FEF8BD00200240E6
:1007E0000010024088130000182F00082400002089
:1007F00010B50F2202600C4AD3689B079B0F436021
:10080000D368F02423408360D46807231B021C4074
:10081000C460D268D2081A40026104480068C00768
:10082000C00F086010BD0000001002400020024010
:10083000044805490068C968044A4905490F515CE4
:10084000C84070472400002000100240312F0008EB
:10085000044805490068C968044A8904490F515C85
:10086000C84070472400002000100240312F0008CB
:1008700010B5184AD1680C20084004280BD008286D
:1008800010D00C2810D050680004410F0120C00384
:10089000491C884010BD1068C00601D50E4810BD27
:1008A0000E4810BD0E4810BD88020E4B000F185C9C
:1008B0000902D368890F491CDB0301D5084A05E00A
:1008C0001268D20601D5044A00E0044A5043FFF7FB
:1008D0004BFC10BD0010024000093D000024F40054
:1008E00000127A00282F0008FEB505007ED0FE4CCD
:1008F000E7680C20E66807400120000406402878DD
:10090000C00747D0082F05D00C2F0AD101200004C2
:10091000864206D1206880033CD568680028E5D06F
:1009200038E0012069680004814203D12168014355
:10093000216011E0052301221B04920499422168E1
:1009400002D111432160F1E7814321602168014018
:100950000091206890432060686800280DD0FFF760
:100960006BFD009005E0FFF767FD0099401A6428D1
:100970007AD820688003F6D50CE0FFF75DFD009083
:1009800005E0FFF759FD0099401A6428F0D8206867
:100990008003F6D42878800755D50923E868042F0A
:1009A0000DD00C2F01D1002E09D000283BD021689A
:1009B000994301432160FFF73FFD064627E0216888
:1009C000490701D5002891D061681F221202914386
:1009D0002A69120211436160216899430143216031
:1009E000FFF746FFE16809060A0F00E079E1BF4919
:1009F000895CC840BE4908600020FFF73FFD002821
:100A000072D120E0FFF718FD801B0228B0D82068C3
:100A10004007F7D560681F21090288432969090248
:100A2000084360600FE02068400840002060FFF746
:100A300003FD064604E0FFF7FFFC801B022897D861
:100A400020684007F7D42878C0065FD5002F0CD067
:100A5000A869002849D02068FF210131084320609F
:100A6000FFF7EAFC06462DE0C0E02068800502D5CD
:100A7000A8690028A7D06068072149038843296A2C
:100A8000084360606068297F0002000A0906084385
:100A90006060286A410B0120C003491C8840E1685E
:100AA00009060A0F9149895CC840914908600020F5
:100AB000FFF7E4FC002817D128E0FFF7BDFC801BFE
:100AC0000228A3D820688005F7D56068072149036C
:100AD0008843296A084360606068297F0002000A31
:100AE00009060843606011E0E1E02168FF20013061
:100AF00081432160FFF7A0FC064604E0FFF79CFC61
:100B0000801B022872D820688005F7D42878794E97
:100B1000000724D568690028306910D001210843F6
:100B20003061FFF789FC009005E0FFF785FC009934
:100B3000401A02285AD830698007F6D50FE04008DD
:100B400040003061FFF778FC009005E0FFF774FC8F
:100B50000099401A022849D830698007F6D42878CD
:100B6000400765D500200290A06BC00006D4A06BA2
:100B7000012109070843A063012002905E48016833
:100B8000C90511D40168821511430160FFF754FCB7
:100B9000009005E0FFF750FC0099401A642825D822
:100BA00055480068C005F5D5FF20AA68013082428B
:100BB00003D131690143316111E001218902002A29
:100BC00007D005231B029A4203D132690A433261DE
:100BD000EFE7326982433261306988433061A86847
:100BE00000280FD0FFF728FC009007E05EE0FFF739
:100BF00023FC0099411A4148814257D83069800549
:100C0000F5D50DE0FFF718FC009006E0FFF714FCA7
:100C10000099411A3948814248D830698005F5D495
:100C20000298002804D0A06B012109078843A06323
:100C3000686A002864D00C2F3ED0012636060228B0
:100C4000206805D0B0432060FFF7F6FB05462FE093
:100C5000B0432060FFF7F0FB074604E0FFF7ECFB32
:100C6000C01B022822D820688001F7D4E96AA86A4C
:100C7000E2680843296BFD231B049A431143084390
:100C8000E060206830432060FFF7D6FB054604E0B3
:100C9000FFF7D2FB401B022808D820688001F7D557
:100CA0002EE0FFF7C9FB401B022801D90320FEBD3F
:100CB00020688001F5D423E00128F8D0E068012104
:100CC0000904AA6A014091420BD10F218904EA6A02
:100CD0000140914205D1032189050840296B8842D2
:100CE0000ED00120FEBD000000100240182F0008A9
:100CF00024000020401002400070004088130000D3
:100D00000020EFE770B5040005D025462035687E49
:100D1000002802D006E0012070BD00202876204681
:100D200000F00AF802206876211D206800F0CAFA57
:100D300001206876002070BD70470268D3680121E9
:100D40000B43D360006882685207520F062A02D014
:100D500002680A43026000207047704770B504467D
:100D6000006801690025C9438907002915DBC168AE
:100D7000C943890711D4E91E01610120207620684A
:100D800080698007204602D0FFF7E7FF04E000F00B
:100D900078F8204600F076F8257620680169C94386
:100DA000490717D4C168C943490713D40421C9436B
:100DB000016102202076206880698005800F20462E
:100DC00002D0FFF7CAFF04E000F05BF8204600F015
:100DD00059F8257620680169C943090716D4C16806
:100DE000C943090712D40821C943016104202076B0
:100DF0002068C0698007204602D0FFF7AEFF04E0FC
:100E000000F03FF8204600F03DF8257620680169A3
:100E1000C943C90617D4C168C943C90613D41021F0
:100E2000C9430161082020762068C0698005800FD1
:100E3000204602D0FFF791FF04E000F022F82046A0
:100E400000F020F8257620680169C943C90708D158
:100E5000C168C943C90704D1891E0161204600F059
:100E600012F820680169C943490609D4C168C94319
:100E7000490605D44021C9430161204600F00CF821
:100E800070BD7047704710B500680121890788421E
:100E900001D1FFF7D7FA10BD704710B5040003D099
:100EA000606F002802D007E0012010BD00217020F3
:100EB0000155204600F026F824206067206801686C
:100EC000490849000160204600F0BEFA0128ECD034
:100ED000606A002802D0204600F020FA20684168AD
:100EE0000922D20291434160206881682A229143FD
:100EF000816020680168012211430160204600F0F2
:100F000073FA10BD10B586B0044614216846FFF789
:100F10008AF90F492068884218D10E48416B012296
:100F2000920311434163C26A02210A43C262C06A4A
:100F3000019108400590C0200090002103200291FB
:100F40000491039069460448FFF7ACF906B010BD60
:100F5000003801400010024000040050FFB5044674
:100F6000406F83B017460D4620285CD1002D0AD073
:100F7000002F08D0A168C001814207D12069002854
:100F800004D1E80702D0012007B0F0BD2046603050
:100F90000290007C012846D00298012101740020B3
:100FA000E06721206067FFF747FA26464036019048
:100FB000378277820120A1680003814202D1206933
:100FC000002802D02F46002511E000270FE0002264
:100FD0008021204600F04CFB002815D1002F15D0B1
:100FE0002168387888627F1C708A401E7082708AFF
:100FF000019B002806980090E9D10022402120465C
:1010000000F036FB002808D00320BDE728882168BF
:10101000C005C00D8862AD1CE6E72020606702991C
:1010200000200874B0E70220AEE7FEE770B586B096
:1010300014216846FFF7F7F81348C16A01252943D0
:10104000C162C16A29400591C16A02242143C1627B
:10105000C06A052620403607059000220B4930461D
:10106000FFF7E4F9012202213046FFF7DFF90748D4
:101070000195801C00900020029069460394304640
:10108000FFF710F906B070BD0010024001800000AB
:1010900010B50A4808490160E12149024160002178
:1010A0008160C16001618161C1610C2201624261A4
:1010B0004162FFF7F2FE10BD0038014094000020AD
:1010C000704700008307FF22DB0E9A408907090E54
:1010D000994000280BDA0007000F083883080848F9
:1010E0009B001818C36993430B43C361704783087F
:1010F00004489B001B181868904308431860704709
:1011000000ED00E000E400E0704700000125052646
:10111000ED033607064C7D27FF0029463046FFF7D2
:101120007DF9606900F070FB384600F03FFBF4E7A2
:1011300000000020012000F039FBFBE70527002517
:10114000134C3F0701262078002806D000220221F8
:101150003846FFF76BF9257005E001220221384679
:10116000FFF764F92670012000F020FB607800286A
:1011700006D0002201213846FFF758F96570E2E7F2
:10118000012211463846FFF751F96670DBE700008F
:10119000000000200024094D86B0E44314220849D1
:1011A0006846FFF727F82146686900F053FBFF23E4
:1011B000072269460348FFF7D1FEEFE70000002051
:1011C000042F00089400002010B5FEF797FF044696
:1011D00001F0B4FC002803D0012003490007486057
:1011E0002046FEF78FFF10BD00ED00E030B599B04E
:1011F00034216846FFF717F814210DA8FFF713F8FC
:101200001C2112A8FFF70FF8144801680322D2022C
:101210009143C214891801600220102100900491AA
:10122000099040040B900001012500240C900395C7
:101230000A946846FFF758FB0F200D9003200E908C
:101240000F941094012111940DA8FFF71BFA12A816
:1012500012951494FFF764F919B030BD0070004086
:1012600010480168821511430160C1680E4A11409F
:10127000C16001680D4A1140016081684908490058
:10128000816001680122920491430160C168FD22DE
:1012900012049143C160002101610549C0038860C7
:1012A00070470000001002400C40FF88F6FFF6FE79
:1012B00000ED00E010B50248FFF750FD10BD000042
:1012C000BC07002070B5026801239B07114C124D2A
:1012D000984203D0A04201D0A84203D17026B24365
:1012E0004E683243984203D0A04201D0A84204D1B4
:1012F00003231B029A43CB681A4380239A430B694A
:101300001A4302608A68C2620968816201214161F0
:1013100070BD0000000801400014014010B5818C30
:10132000C90707D001684A6801235B049A43836AAE
:101330001A434A60818C890707D501684A680123EE
:101340001B049A43C36A1A434A60818C490707D534
:1013500001684A6801239B049A43036B1A434A605D
:10136000818C090707D501684A680123DB039A438A
:10137000436B1A434A60818CC90607D5026891689D
:1013800001231B039943836B19439160818C890668
:1013900007D501688A6801235B039A43C36B1A432C
:1013A0008A60818C490612D503685A6801210905B3
:1013B000046C8A4322435A60026C8A4207D1026855
:1013C000516803235B059943436C19435160818C39
:1013D000090607D501684A680123DB04806C9A433B
:1013E00002434A6010BD0000F8B500260446C667F7
:1013F000FFF722F8054620680068124F000709D55C
:1014000001212B46002249052046009700F030F9C3
:1014100000280DD12068006840070BD501212B461C
:10142000002289052046009700F022F9002801D00B
:101430000320F8BD20206067A06760342674002078
:10144000F8BD0000FFFFFF01F8B504462669A26859
:10145000E76932436669102000253E432368324322
:1014600078491E68784F3E4016431E6023685A68CC
:1014700003263603B243E66832435A602368A26902
:101480008B4201D0266A32439E680B273F02BE433F
:1014900016439E606D4E23686D4AB3420CD1D268EC
:1014A0009207920F06D0012A38D0022A34D0032A9C
:1014B00020D11EE001201DE0664EB3420AD1D26861
:1014C0000C26324026D0042A28D0082A24D00C2A00
:1014D00010D10EE08B420DD1D66803229202164045
:1014E00018D001229202B61A18D0B61A14D0964219
:1014F00000D10820564A0126403A574FF6038B4246
:1015000036D100280CD002280DD0042812D008288B
:101510001FD11CE00020EDE70220EBE70420E9E703
:10152000FFF786F908E01068C00601D5384605E0E7
:101530004A4803E0FFF79CF9002873D06268510025
:101540005118814205D81103814202D303E030468D
:10155000F4E7012566E0010E06025008002330186A
:101560005941FEF717FE03210902411A3C4A55E092
:10157000E169B14232D1030000F0ABF809070A0D6E
:1015800006250606062B0600E3E7FFF751F91CE0E7
:10159000FFF75EF919E010686168C00602D54808D7
:1015A000304A01E0304A48088018FEF7DDFD80B27D
:1015B00001462E4A10399142CBD8511C01400007F8
:1015C000400F08432CE0FFF753F9616840004A08D8
:1015D000EAE76168012248081204E5E7030000F029
:1015E00078F809070A0D06260606062C0600B0E75D
:1015F000FFF71EF91DE0FFF72BF91AE0106861688C
:10160000C00602D54808C01902E014484A0810185C
:10161000FEF7AAFD80B20146144A1039914298D8CB
:101620002168C8600020206660662846F8BDFFF784
:101630001FF961684A088018EAE76168480880195C
:10164000E6E7000000480040F369FFEF0038014082
:10165000401002400044004000093D000024F40016
:10166000FFFC0F0000127A000048E801EFFF0000C5
:10167000FFB581B017460E4604460A9D09E0681C76
:1016800007D0FEF7D9FE0499401AA8420CD8002DC5
:101690000AD02068C1693046884318D00020B8427B
:1016A000EDD0002005B0F0BD20680168FF22A13216
:1016B00091430160206881684908490081602020C9
:1016C0006067A0670020603420740320EAE70120EF
:1016D000E5E730B47446641E2578641CAB4200D242
:1016E0001D46635D5B00E31830BC184702E008C884
:1016F000121F08C1002AFAD170477047002001E08C
:1017000001C1121F002AFBD17047EFF305800028AA
:1017100000D00120704700009EB0FEF79BFEFFF74F
:1017200065FDFFF783FCFFF7B3FC00201C901D90C4
:1017300001211CA800F047F8174C1C2260611749D2
:101740006846FEF757FD0021684600F0B5F81349DA
:1017500060601C221C3107A8FEF74CFD002107A881
:1017600000F0AAF80D49A0601C2238310EA8FEF73F
:1017700041FD00210EA800F09FF80849E0601C22FE
:10178000543115A8FEF736FD002115A800F094F895
:10179000206100F013F8FEE700000020942E0008FE
:1017A00001460020842900D0C81C704710B50028CD
:1017B00000D1012000F03CFD002010BD10B500F06C
:1017C000BFFD002010BD38B54368002B09D00129AA
:1017D00009D10320002200901146012000F05EFE96
:1017E00038BD012901D0002038BD0322002101208D
:1017F00000F036FE040004D000231A46194600F01B
:10180000A3FE204638BD000038B5002405460094EC
:10181000FFF77BFF00280FD06946284600F066FFDF
:10182000012801D0FF2038BD009800280DD00120EC
:1018300007490007486008E000231A461946284671
:1018400000F082FE012800D0FF24204638BD0000B1
:1018500000ED00E038B5054600200090002D11D0C5
:101860000024481C10D0002900D00C46FFF74DFF83
:10187000002814D06A460021284600F0F2FF012813
:1018800013D104E0802038BD0024E443EEE7009843
:1018900000280CD0012007490007486007E02146D6
:1018A000284601F01AF8012801D0FF2038BD002099
:1018B00038BD000000ED00E07FB50D4604464169EB
:1018C0000820205E002911D0A16900290ED0FFF761
:1018D00067FF6B46A269616907C32B4622692168CD
:1018E000606801F0F2F8039004B070BDFFF758FF94
:1018F00003A901910090208A2B4682B2216860687A
:1019000001F0BAF8012801D00020EDE70398EBE7D9
:10191000F8B5134C0F46666905462068001D00F0B7
:10192000AFFB681C07D1002F05D021680D48091DA9
:1019300000F0F6FBF8BD2068751945602168B542D6
:1019400004D2A068091D00F0D3FBF8BD6068091D32
:1019500000F0CEFB206B8542F7D22563F8BD000076
:101960002800002014090020F8B5054600F0E4FB2B
:10197000294C2069401C20612068284F002803D092
:10198000E069002827D02CE025602069012828D1B3
:10199000002614207043C01900F09CFB761C072E13
:1019A000F7D31E488C3000F095FB1C48A03000F0A7
:1019B00091FB1A48B43000F08DFB1848C83000F095
:1019C00089FB1648DC3000F085FB14488C306060E1
:1019D0001430A06005E02068E96AC06A884200D837
:1019E0002560E06A401CE062E86AA169884200D98B
:1019F000A06114214843C019291D00F091FB00F09B
:101A0000A7FBE069002806D02068E96AC06A88421E
:101A100001D200F0CDFBF8BD2800002038080020DE
:101A200038B500F089FB114CA06800281AD1104885
:101A300000F050FB0E48143000F04CFB0C482060C6
:101A400014300B4B6060002028331A460090483257
:101A50000C210A2000F022FDA060002802D005A180
:101A600000F0B2FB00F074FB38BD00006400002001
:101A700028090020546D72510000000010B5026C5E
:101A80000C46002A0CD0C1688B18C36041688B4299
:101A900001D2194601E00168C1602046FEF7AAFBA9
:101AA00010BDF8B5856B174604460026026C002A67
:101AB00011D0002F19D0E068FEF79CFBE168206C84
:101AC000091AE1602268914202D26168081AE06056
:101AD000022F17D019E02068002816D1606801F0A5
:101AE0008BF80646002060600FE0A068FEF782FBDE
:101AF000216CA0684018A0606168884205D3206806
:101B0000A06002E0002D00D06D1E6D1CA563304664
:101B1000F8BD10B504464030407C002805D00128AF
:101B200006D0022807D072B6FEE7206B00F01EFB3D
:101B3000204600F01BFB10BD03210E48890242071E
:101B400005D0C01DC0080B4AC000821A891A0A4A73
:101B50000023411809C20839C908C900183A1160A0
:101B60004B600B600B1A0AC093600120C0075360E2
:101B7000D0607047100A0020880000200F4E104CE3
:101B80003746C83F11E000F0D7FAF068C568281D55
:101B900000F076FA2069401E2061E068401EE06097
:101BA00000F0D6FA2846FFF7B4FFE0680028EAD133
:101BB00038680128F9D900F0FBFAF6E7000900209F
:101BC0002800002010B503460298002906D00260C4
:101BD000C3630164012100F081FC10BD0060F7E7E0
:101BE000FFB581B00C9C9000236B001F1818C6082D
:101BF0000A9DF600700701D072B6FEE723180A5C52
:101C000020331A750A5C002A02D0401C1028F5D334
:101C10002046403000270090C770072D00D30625CE
:101C2000E562A764201D656400F05FFA2046183065
:101C300000F05BFA24610720401B6462A061E76446
:101C4000009807743046049A019900F009FA206060
:101C50000B98002800D0046005B0F0BD30B51149E4
:101C600000E011460A688242FBD34B685C1884424C
:101C700003D1406818184860084643681C1894420D
:101C800009D1084C103C2468A24209D052689A1825
:101C900042600A6812680260814200D0086030BD6C
:101CA0000460F9E78800002070B5002441600B4D06
:101CB0000061914206D8D11A8269914206D2011D73
:101CC000686807E09A4203D2994201D3012403E0F5
:101CD000011D286800F00CFA204670BD6400002049
:101CE00010B5044600F028FAA06B002804D00024A8
:101CF00000F02EFA204610BD0124F9E730B587B078
:101D0000294D47E00498002844DB069C60690028C0
:101D100002D0201D00F0B4F902A800F0A5F8024698
:101D200004980300FFF7D5FC0A06060636232F06A3
:101D3000063623360598A169034641182046FFF769
:101D4000B3FF002826D0616A20468847E069012851
:101D500020D1002000900598A1690023421819465F
:101D6000204601F06DF8002814D172B6FEE7059800
:101D7000A061002805D0811813462046FFF794FF84
:101D800008E072B6FEE72820005D002802D1204658
:101D900000F0ECF9002204A9A86800F0E1FC00289A
:101DA000B0D107B030BD000064000020FEB50F4682
:101DB000054600F0F9FA01A800F056F8044601982B
:101DC000002802D000F0BAFFFEBD1E4E002F10D03A
:101DD00070680068002833D00027291B3A46B06895
:101DE00000F004FA00F0AAFF0028EDD100F0E0F9BD
:101DF000FEBDA542F1D800F0A1FF30682746C068BB
:101E0000C468201D00F03CF9E069012812D1A069E6
:101E10002B4641193A462046FFF746FF002809D0D5
:101E200000200346014600902A46204601F008F8AB
:101E3000002803D0616A20468847FEBD72B6FEE7DF
:101E40000127CAE7640000200648416809680029A4
:101E500005D04168C968C9684968016370470021B5
:101E6000C943FAE72800002070B5054600F060FE7F
:101E7000064E04463069844203D200F009F801207E
:101E800000E0002028602046346170BD640000201E
:101E9000F8B5164D20E0C068C4680668201D00F043
:101EA000EFF8616A20468847E069012814D1A069EB
:101EB0008019B04206D924616060211D286800F0B5
:101EC00017F909E0002003460146009032462046FB
:101ED00000F0B6FF002807D0286801680029DAD191
:101EE000696829606860F8BD72B6FEE7640000208A
:101EF00003480068401C72B600D0FEE7FEE7000011
:101F000090000020074C20680168002907D0C068B5
:101F100000210068FFF74AFFFFF7F0FEF3E7012119
:101F20000020F7E764000020F8B5044600F004F94B
:101F3000254640350526AE57274624370BE0606A14
:101F400000280AD0384600F0C7FE002801D000F073
:101F50008FF9761E76B2002EF1DC0027FF436F71F9
:101F600000F0F6F800F0E8F80426AE5720461030EE
:101F700000900BE0206900280AD0009800F0ACFE29
:101F8000002801D000F074F9761E76B2002EF1DC44
:101F90002F7100F0DDF8F8BDF8B50546002700F018
:101FA00003FA284E3068002801D1FFF7C5FDF0681C
:101FB00005423FD1002D3DD00835680708D068079D
:101FC000400F0821081A4519680701D072B6FEE7CC
:101FD000002D2FD0706885422CD81A481030014649
:101FE0000C6801E020460C466168A94202D22168D3
:101FF0000029F7D131688C421CD007682168016044
:1020000060680837411B102908D96019420701D0C0
:1020100072B6FEE741606560FFF720FE6168706898
:10202000401A7060B268904200D2B060F06801431C
:10203000002003C400F082FE780701D072B6FEE7EC
:102040003846F8BD7800002004490868002803D00D
:102050000868826C521C826408687047280000205F
:1020600010B50124031F24061C601B1F1960191FD3
:10207000024B0B60143940380A6010BDF11E000895
:102080004368826801699A60836842685A604A6856
:10209000824201D182684A60002202610868401EC3
:1020A0000860086870470000034B0360184654300E
:1020B000086080201060704714010020044B03600A
:1020C000184654300860FF2001301060704700004F
:1020D000680300200146083100224160D243C160FC
:1020E0008260016100210160704700210161704739
:1020F00030B50B685A1C02D00246083202E0026971
:1021000004E02246546825689D42FAD953684B6022
:1021100099608A60516008610168491C016030BDA6
:1021200042684A6093688B60936859609160086167
:102130000168491C0160704772B604480168491C77
:10214000BFF34F8FBFF36F8F016070479000002087
:1021500005490868002804D0401E086000D162B616
:10216000704772B6FEE700009000002070B50028AE
:102170001AD004460D4D083C6068E968084201D158
:1021800072B6FEE72268002A01D072B6FEE78843E5
:10219000606000F009F9606869684018686020466E
:1021A000FFF75CFD00F0CAFD70BD00007800002064
:1021B0000120044900074860BFF34F8FBFF36F8FC2
:1021C0007047000000ED00E010B5074B0022D4007E
:1021D0001C59002C03D0521C082AF8D310BDD20081
:1021E0009950D118486010BDF807002070B5154609
:1021F0000E460446FFF7A0FF2046403004228256D8
:102200000021521C00D1017105228256521C00D1BE
:102210004171FFF79DFFA06B002805D120462A469B
:102220003146243000F03CF82046FFF77DFE70BDBB
:1022300010B502000FD00948806B002801D072B69B
:10224000FEE700F0B1F800211046FFF761FB00F057
:1022500075FD002801D1FFF7ABFF10BD280000205D
:1022600002498A6A0260496941607047280000207B
:1022700001490120486270472800002010B50C4633
:10228000002809D0054909681831FFF731FF0121FD
:102290002046FFF73DFB10BD72B6FEE72800002088
:1022A00070B514460D4600280DD00849096818314C
:1022B000FFF736FF002C01D00025ED4321462846CC
:1022C000FFF726FB70BD72B6FEE700002800002075
:1022D00070B504002FD0A26C002A0ED0606C88422A
:1022E00000D30146E06A884225D0012A23D1124D4D
:1022F0002A68944203D172B6FEE772B6FEE7E16245
:10230000A269002A02DB0722511AA16114220B4E96
:1023100050436169801981420DD1201DFFF7B0FE45
:10232000E06AA969884200D9A8611421484380194C
:10233000211DFFF7F5FE70BD2800002038080020A1
:1023400030B587B00024039405AA04A903A8049417
:10235000FFF7AAFE049903980094019102900023CC
:102360000DA10F48059A00F0B0FB0E4D00286863E0
:1023700010D000F039FD012803D0401C0AD172B6FC
:10238000FEE772B60020C04328630120E8616C615B
:1023900000F03EF807B030BD49444C450000000055
:1023A0007D1B0008280000200248816B491C8163C6
:1023B000704700002800002010B51348816B0029E9
:1023C00002D00121416210BD0021416281690F4AA2
:1023D00002E0002915D0491E14234B43D358002B8B
:1023E000F7D014234B439A18536814465B6808349B
:1023F0005360A34201D15B685360DA680260816177
:1024000010BD72B6FEE7000028000020380800204A
:1024100070B50F48016AFF22120411430162016A7C
:102420001202114301620B4C00252561A5610A4887
:102430007D21C9000068FDF797FE401E60610720FE
:10244000206106480560FDF745FE002070BD0000D4
:1024500000ED00E000E000E02400002090000020FB
:10246000F8B517460E46050014D0002E14D0704360
:102470004830FFF791FD04000AD0002146200155A5
:10248000224648323B46314628460094FFF79AFBE5
:102490002046F8BD72B6FEE70020E9E7F8B5069DD4
:1024A000002806D0002B06D0002A08D0002904D02E
:1024B00009E072B6FEE772B6FEE772B6FEE70029E3
:1024C00001D072B6FEE748241C46012640339E71B7
:1024D0002B460094FFF776FB2046F8BD70B50D46FD
:1024E000040025D0FFF728FE216CE06B48432168EB
:1024F000411861600021A1632168A160E06B216C3B
:10250000401E484321684118E1600021C94320462C
:102510004030017141713038002D0BD0FFF7DAFDEA
:1025200020462430FFF7D6FDFFF712FE012070BDD4
:1025300072B6FEE721690029F6D000F0CDFB002835
:10254000F2D0FFF735FEEFE7FFB5002683B01D465A
:10255000040003D00498002802D006E072B6FEE71B
:10256000206C002801D072B6FEE7022D04D1E06B8A
:10257000012801D072B6FEE700F0CAFA0027002851
:1025800004D10598002801D072B6FEE7FFF7D4FD0C
:10259000A06BE16B884207D3022D05D00598002877
:1025A00017D0002E18D01BE02A4620460499FFF7CA
:1025B00078FA616A002903D02046243000F08CFBB1
:1025C000002801D0FFF7F4FDFFF7C2FD012007B09E
:1025D000F0BDFFF7BDFD22E06846FFF741FE012692
:1025E000FFF7B6FDFFF7E0FEFFF7A6FD20464030FF
:1025F00004214156491C00D1077105214156491C4F
:1026000000D14771FFF7A4FD05A9684600F006FA5E
:10261000002806D02046FFF787FC00F08FFB002043
:10262000D5E7FFF789FDA06BE16B884210D1FFF77A
:102630008FFD204610300599FFF720FE2046FFF75A
:1026400073FC00F07BFB0028A0D1FFF7B1FD9DE7F4
:10265000FFF77EFD2046FFF767FC00F06FFB95E774
:10266000FFB581B01E46040003D00298002802D0B6
:1026700006E072B6FEE7206C002801D072B6FEE7D5
:10268000022E04D1E06B012801D072B6FEE7FDF7FF
:1026900035FD0090A06BE16B884208D3022E06D076
:1026A00000240098FDF72EFD204605B0F0BD204621
:1026B0004030052545570746324620460299FFF728
:1026C000F0F9681C03D06D1C7D710124E9E7606A94
:1026D0000028FAD02046243000F0FEFA0028F4D07A
:1026E00003980028F1D001210160EEE770B50D4696
:1026F000040004D0206C002803D072B6FEE772B646
:10270000FEE72068002804D16068002801D072B676
:10271000FEE7FDF7F3FCA26B0646E06B904219D989
:102720002146403105200856521CA263421C03D0AA
:10273000401C487101240EE0606A0028FAD020464F
:10274000243000F0C9FA0028F4D0002DF2D0012086
:102750002860EFE700243046FDF7D4FC204670BD2A
:10276000F7B5002582B0040003D00398002802D0FA
:1027700006E072B6FEE7206C002801D072B6FEE7D4
:1027800000F0C6F90026002804D10498002801D0E2
:1027900072B6FEE7FFF7D0FCA76B002F15D02046DE
:1027A0000399FFF76BF97F1EA7632069002807D004
:1027B0002046103000F090FA002801D0FFF7F8FC16
:1027C000FFF7C6FC012005B0F0BD0498002802D038
:1027D000002D03D006E0FFF7BBFC27E06846FFF7BB
:1027E0003FFD0125FFF7B4FCFFF7DEFDFFF7A4FC7A
:1027F0002046403004214156491C00D10671052174
:102800004156491C00D14671FFF7A2FC04A9684655
:1028100000F004F9002820460AD0FFF785FB00F0FD
:102820008DFA2046FFF75CFA0028B3D00020CAE7F3
:10283000FFF756FA00280ED0204624300499FFF7FF
:102840001DFD2046FFF770FB00F078FA0028A1D1AB
:10285000FFF7AEFC9EE72046FFF766FB00F06EFA3E
:1028600098E7F7B582B0040003D00398002802D09F
:1028700006E072B6FEE7206C002801D072B6FEE7D3
:10288000FDF73CFC0090A66B002E1FD02046403088
:1028900004254557074620460399FFF7EFF8761EB3
:1028A000A663681C03D06D1C3D7101240FE02069F4
:1028B0000028FAD02046103000F00EFA0028F4D09C
:1028C00004980028F1D001210160EEE7002400986F
:1028D000FDF718FC204605B0F0BDF3B5002683B027
:1028E0000400354604D0206C002803D072B6FEE701
:1028F00072B6FEE700F00CF90027002804D1049816
:10290000002801D072B6FEE7FFF716FCA06B002886
:1029100017D0401EA0632068002802D1FFF794FB67
:1029200060602069002807D02046103000F0D4F9FC
:10293000002801D0FFF73CFCFFF70AFC012005B09E
:10294000F0BD0498002802D0002E07D00AE0002D28
:1029500001D072B6FEE7FFF7FBFB5CE06846FFF7CD
:102960007FFC0126FFF7F4FBFFF71EFDFFF7E4FBFA
:102970002046403004214156491C00D107710521F1
:102980004156491C00D14771FFF7E2FB04A9684694
:1029900000F044F80028204614D0FFF7C5FA00F0F4
:1029A000CDF92046FFF79CF90028ADD0002D32D09C
:1029B000FFF7C2FB606A002828D0206B072100685F
:1029C000091A24E0FFF78CF9002819D020680028A4
:1029D00007D1FFF7B1FB606800F042F90546FFF749
:1029E000B7FB204624300499FFF748FC2046FFF748
:1029F0009BFA00F0A3F9002886D1FFF7D9FB83E703
:102A00002046FFF791FA00F099F97DE70021606810
:102A1000FFF75EFC9FE7002091E70000F8B50C4649
:102A2000050012D0002C12D0FFF786FB114B5A691B
:102A30006E682068911B471C0BD02F689B6A9F42D1
:102A40000CD096420AD8012404E072B6FEE772B6B2
:102A5000FEE70024FFF77CFB2046F8BD884205D93D
:102A6000401A20602846FFF7FBFBF2E700202060B9
:102A7000E9E7000028000020FFB585B01646900069
:102A80000F9FFFF789FA05001CD05420FFF784FA46
:102A9000040014D000205121256308550E9900919F
:102AA0000390019702943246089B06990598FFF718
:102AB00097F82046FEF758FF012009B0F0BD2846E0
:102AC000FFF754FB0020C043F7E7F0B585B0074699
:102AD0000B9D0C9C0A98002D15D0002C15D0542667
:102AE0002563022551263555002504AE0090019638
:102AF000039502943846FFF773F82046FEF734FF3B
:102B0000049805B0F0BD72B6FEE772B6FEE70000AD
:102B10000648C169002904D0806B002803D000203A
:102B200070470120704702207047000028000020F5
:102B3000014840697047000028000020F8B52C4C7F
:102B40000027A06B002808D0206A401C2062606A21
:102B5000002800D001273846F8BD6669761C6661FA
:102B60000ED160680068002801D072B6FEE7606888
:102B7000A1686160A060A06A401CA062FFF764F9D0
:102B8000206B86420AD360680068002810D0606815
:102B9000C068C568686886420DD220632068142129
:102BA000C06A4843134908580128D0D90127CEE705
:102BB0000020C043F1E7281DFFF762FAA86A002849
:102BC00003D028461830FFF75BFAE86AA16988420B
:102BD00000D9A0611421484306494018291DFFF778
:102BE0009FFAE86A2168C96A8842CCD30127CAE7FC
:102BF000280000203808002070B500210446002875
:102C000028D0154D2868844201D072B6FEE7A06C2A
:102C1000002808D0401EA064636CE26A9A4219D072
:102C2000002802D016E072B6FEE7201DFFF728FA52
:102C3000606C0721E062081AA061E06AA969884215
:102C400000D9A8611421484304494018211DFFF709
:102C500067FA0121084670BD2800002038080020CE
:102C600070B504460020002C2AD0194DE16A2A686C
:102C7000D26A914225D2A069002804DB2868072186
:102C8000C06A081AA061E06A1422124E50436169BA
:102C90008019814210D1201DFFF7F2F92868C06A1F
:102CA000E062A969884200D9A861142148438019CB
:102CB000211DFFF735FA02E02868C06AE0620120B2
:102CC00070BD616C2A68D26A9142F8D370BD000071
:102CD000280000203808002070B5C068C468002CA7
:102CE0000BD0204618300646FFF7CAF9114DA86BE5
:102CF000002804D0314610480FE072B6FEE7201DD0
:102D0000FFF7BEF9E06AA969884200D9A8611421D9
:102D100048430949B4394018211DFFF701FAE06A18
:102D20002968C96A884202D90120686270BD002002
:102D300070BD000028000020EC080020F8B5284CE9
:102D40000025A06B2E46002808D0FFF7F5F9A06BF0
:102D5000401EA063A06B002802D03DE072B6FEE7E3
:102D60002169204F00291DD136E0F868C568284642
:102D70001830FFF785F9281DFFF782F9E86AA16985
:102D8000884200D9A061142148431649B43940183B
:102D9000291DFFF7C5F9E86A2168C96A884201D38D
:102DA0000120606238680028DFD1002D01D0FFF7D4
:102DB0004BF8256A002D09D00127FFF7BFFE002838
:102DC00000D067626D1EF8D100202062606A002882
:102DD00002D00126FFF7ECF9FFF7BAF93046F8BD4B
:102DE00028000020EC08002010B586B0FEF718FE81
:102DF0000F4CA068002819D000200390049005AA69
:102E000004A903A8FFF75AF90220039A0499009035
:102E100002920191002307A10848059AFFF755FE89
:102E2000E060002802D0012006B010BD72B6FEE7B7
:102E300064000020546D722053766300051F000863
:102E4000FEB51D4603460020089E002B13D0104CF3
:102E5000A768002F0ED002930192009106290FDA85
:102E6000FFF756FE022808D000231A466946A068DC
:102E7000FFF76AFBFEBD72B6FEE700233246F5E7B8
:102E800000232A4669463846FFF7EAFBFEBD0000EC
:102E9000640000203C2F00083511000800000000ED
:102EA00000000000800000000000000000000000A2
:102EB000482F00083D11000800000000000000003D
:102EC000800000000000000000000000542F0008F7
:102ED0000D110008FEFF000000000000800000004F
:102EE0000000000000000000602F0008951100089D
:102EF0000000000000000000800000000000000052
:102F00000000000068656C6C6F0D0A000000000096
:102F100000000000000000000000000000000000B1
:102F20000102030406070809030406080C10182010
:102F300030000000000102030400000064656661C7
:102F4000756C745461736B004750494F54657374CA
:102F5000000000005461736B54657374000000003E
:102F60005561727454657374000000008C2F000862
:102F70000000002094000000EC160008203000083B
:102F8000940000207C190000FC16000801000000DD
:102F90000000000000000000000000000000000031
:102FA000000000000100000004000000000000001C
:102FB00000002000000000000000000000000000F1
:102FC0000000000000000000000000000000000001
:102FD00000000000000000000000000000000000F1
:102FE00000000000000000000000000000000000E1
:102FF00000000000000000000000000000000000D1
:1030000000000000000000000000000000000000C0
:10301000000000000000000000000000AAAAAAAA08
:04000005080000C12E
:00000001FF
